:020000020000FC
:040000000C94B000AC
:04004C000C945400BC
:04000C000C94380018
:10007000DFB6E02E06B30370FF24B1E0A0E0A00FCE
:10008000BF1DFC90FBBA006800000000299907C062
:10009000F3B2F0940460043809F41496FC920093CF
:1000A00006010E2DDFBE1895FF93EF93DF93CF93DC
:1000B000BF93AF939F938F937F936F935F934F9370
:1000C0003F932F931F930F930FB70F9343D20F7D3F
:1000D000023529F4FEB7EDB7319613E114C00335AC
:1000E00039F4FEB7EDB771961FEF1E1B31960BC0AA
:1000F000023421F41127F1E0E8E205C0033439F4B9
:1001000018E2F1E0E0E0019129D21A95E1F70F91B0
:100110000FBF0F911F912F913F914F915F916F9161
:100120007F918F919F91AF91BF91CF91DF91EF918F
:10013000FF911895EB76904558464154FF00C10059
:1001400056004F004C0055004D00450053FFC100C4
:100150005400490056004F004C003000300030FF82
:100160000FEF0DBF04E00EBF0FEF0ABB002704BB6B
:1001700000EB07BBC69A0AE001BB04E006B93A9857
:1001800006B70E7F06BF0BB700620BBF04E00093FB
:100190000001002700930101009302010093030175
:1001A00000930401939810E000E1CBD10AB10068FC
:1001B0000AB900E1A02EDAD19BD2E5D119F000E80E
:1001C0000093000101E000931901002700931A0138
:1001D00000931B0100931C018AD3ECE2F2E0019131
:1001E0000F9301910F9301910F93CFE0D1E023E0A2
:1001F0005F9189D1099219922992399228972A956B
:10020000B9F7E7E0F1E0C9E1D1E0EAD370D307E262
:100210001091320212FD0FE400931301EBE0F1E0C4
:10022000C9E1D1E0DDD363D307E21091320212FDC0
:100230000FE400931401EFE0F1E0C9E1D1E0D0D385
:1002400056D307E21091320212FD0FE4009315011C
:1002500000270093060178940027009300013A9844
:100260000091060107FFFCCF1127109306010091B2
:1002700004010030A9F33A9A10930401013811F4F3
:1002800025D1A0CF023811F4FAD0E6CF0A3039F4E4
:10029000002700930101009302010460DECF0E31BC
:1002A00029F40091030100930101D6CF0A3531F4FE
:1002B00000910101039500930101CECF083811F49C
:1002C00042D0CACF083A11F42BD0C6CF003C11F46B
:1002D00009D0C2CF043F11F4ACD0F7CF003DA9F74D
:1002E00037D370CF3A98009101010093030172D087
:1002F000002787990395009303016CD000910201B8
:100300000093030167D000270093030163D0002707
:10031000009303015FD00027009303015BD0089591
:10032000F1E0E8E220E03A985FD000910301019308
:100330002A95D1F73A9A01E0879B0027009305019F
:1003400014D06BD0089501E0879B0027009305012E
:100350000CD054D0F1E0E8E220E03A98019100930B
:10036000030138D02A95D1F7089500910101109129
:10037000050110FF0CC01091130185991091140113
:10038000869910911501011B01951395010F19E034
:10039000019F112700910201000E111E009216010B
:1003A00016940794F1E0E7E085993496869938969B
:1003B0000191000D009319010191011D00931A0193
:1003C00000240191001D00931B010081001D00937A
:1003D0001C0108950091060107FFFCCF112710931F
:1003E00006010338B9F708950091060107FFFCCF15
:1003F0001127109306010738B9F7089578D2E8E27B
:10040000F2E00091160100FDF395C8E2D1E000276B
:10041000119119930A95E1F7089569D2E8E2F1E0A4
:10042000C8E2D2E00091160100FDD395F0DF2CD296
:10043000089549E03A98D8DF009103010E3FD9F7BB
:10044000D3DFD2DF0091030100930501CDDF0091DE
:10045000030100930201C8DF009103010B3FD9F7AC
:10046000F1E0E8E220E0C0DF0091030101932A956A
:10047000D1F73A9A7ADFD1DF4A95E1F6089501E0A3
:1004800000931901002700931A0100931B010093A8
:100490001C012DD2F2E0ECE243E001910093030154
:1004A0003A9898DF3A9A4A95C1F755272CD01FD22F
:1004B000E8E2F2E04AE00191009303013A988ADF12
:1004C0003A9A4A95C1F7539589F708953A988CDF7F
:1004D0004091030143704A9587DF509103013A9A96
:1004E00001E000931901002700931A0100931B01FA
:1004F00000931C01FCD1F2E0E8E2E40F0027F01FBA
:100500005483C2D10895552EF1E0E4E20190119098
:100510002224332401911191552019F009D05A94C5
:10052000E9F7F1E0E9E10192119221923192089507
:100530004424000E141C241C341C110E241C341CD6
:10054000089509B910BD06E800BD08E10AB902E046
:100550000BB908955F9BFECF0CB108955D9BFECF54
:100560000CB908955F9B08950CB1FCCF03E50DB95C
:1005700008950FEF0FB9779BFECF0FB108956898DC
:100580006998709A089500270093190100931A0141
:1005900000931B0100931C01AAD1EEEEF3E0C0E230
:1005A000D1E01ED2E0E2F1E0C9E1D1E019D29FD161
:1005B000E8E2F2E0C4E3D1E000D209F5E8E8F2E0D5
:1005C000C9E1D1E00DD2E5E9F2E0308130931F01BD
:1005D000DDD1A9E1B1E0C0E2D1E008D288D1E8E202
:1005E000F2E0CEE3D1E00081013C11F4E6D141F02C
:1005F000B09608E2E017B9F704E0F017A1F752C08F
:10060000B0977496C9E1D1E0EBD130911F01BED112
:10061000A9E1B1E0C0E2D1E0E9D169D1E8E2F2E0DC
:10062000CEE4D1E00081013C11F4C7D141F0B09695
:1006300008E2E017B9F704E0F017A1F733C0B0976C
:100640007496C9E1D1E0CCD130911F019FD1A9E1CD
:10065000B1E0C0E2D1E0CAD10091190100932401B8
:1006600000911A0100932501C9E1D1E0B9D130917F
:100670001F0109E0300FCBD14EF4E0911901F09148
:100680001A013196E0931901F0931A0130911F017C
:100690007DD1009119010093260100911A01009368
:1006A00027011894089554D153D152D151D150D12A
:1006B0000FEF60DF009118015DDF00911C015ADF30
:1006C00000911B0157DF00911A0154DF00911901BD
:1006D00051DF00911D014EDF22273AD14ADF1091F0
:1006E0001E01011721F02A95C1F726D1989408958B
:1006F000C49A1AE03EDF1A95E9F7C49800E4009323
:10070000180100270093190100931A0100931B019F
:1007100000931C0105E900931D0101E000931E01F7
:10072000C2DF61F708E4009318010AEA0093190197
:1007300001E000931A01002700931B0100931C01A4
:1007400007E800931D0101E000931E01ACDF71F585
:1007500010DF0FDF0EDF0DDF07E700931801002722
:100760000093190100931A0100931B0100931C01CF
:100770000FEF00931D0101E000931E0194DF61F76C
:1007800009E60093180100270093190100931A014C
:1007900000931B0100E400931C010FEF00931D0167
:1007A000002700931E017FDFB9F614C001E4009317
:1007B000180100270093190100931A0100931B01EF
:1007C00000931C010FEF00931D01002700931E01F1
:1007D0006ADF61F70AE70093180100270093190107
:1007E00000931A0100931B0100931C010FEF00936B
:1007F0001D01002700931E0156DF61F7F2E0E8E2D9
:1008000034E0B7DE01933A95E1F7009128020093B6
:10081000170109E400931801002700931E0143DF2C
:10082000C1F70EEF00931E0157DF99F732E1A1DE09
:100830003A95E9F70AE400931801002700931E0196
:1008400032DFC1F70EEF00931E0146DF99F732E168
:1008500090DE3A95E9F793DEC49800E5009318011D
:1008600000270093190102E000931A01002700936A
:100870001B0100931C01002700931D0100931E0122
:1008800012DF51F7C49A0895C4986DD000911701F2
:1008900006FF7BD008E500931801002700931D0197
:1008A00000931E0100DFB1F764DE63DE0EEF62DE4F
:1008B000F2E0E8E2332701915DDE3A95E1F701913C
:1008C00059DE3A95E1F755DE54DE53DE0F710530FF
:1008D00049F40FEF00931E01FFDE21F44DD0C49ABE
:1008E0001894089549D028D0C49A98940895C4982B
:1008F0003AD00091170106FF48D001E50093180196
:10090000002700931D0100931E01CDDEB1F70EEF0D
:1009100000931E01E1DE89F7F2E0E8E2332729DEE9
:1009200001933A95E1F725DE01933A95E1F721DE4F
:1009300020DEC49A21D0089511DE00911E010EDE42
:10094000009118010BDEAA94F9F3089500000895B0
:100950000F931F9314E100270A95F1F71A95E1F719
:100960001F910F9108956090190170901A01809065
:100970001B0190901C01089590921C0180921B0114
:1009800070921A0160921901089539E000911901DD
:10099000000F0093190100911A01001F00931A0122
:1009A00000911B01001F00931B0100911C01001FFF
:1009B00000931C013A9551F70895EF93FF93CF935D
:1009C000DF938F01FE01E80105910F3F21F019919E
:1009D000011709F4F9CFDF91CF91FF91EF910895BD
:1009E00004E0119119930A95E1F708950C9119917A
:1009F000010F0D930C911991011F0D930C911991F9
:100A0000011F0D930C911991011F0D930895E89406
:100A100000911C01069500931C0100911B01079594
:100A200000931B0100911A01079500931A01009190
:100A3000190107950093190108F468943A9541F754
:020A4000089517
:00000001FF
