:020000020000FC
:040000000C94DF007D
:04004C000C945400BC
:04000C000C94380018
:10007000DFB6E02E06B30370FF24B1E0A0E0A00FCE
:10008000BF1DFC90FBBA006800000000299907C062
:10009000F3B2F0940460043809F41496FC920093CF
:1000A00006010E2DDFBE18950F930FB70F931F9308
:1000B000FF93EF9300912A01039500932A01F1E049
:1000C000EBE200912801E00F1127F11F0395039542
:1000D000003809F40027009328010BB101930CB1FB
:1000E00000830A3079F4329700810D3059F4389743
:1000F0000081013439F432960081043519F43296C6
:1001000000810332F9F532960081DF93CF93BF93DC
:10011000AF939F938F937F936F935F934F933F938F
:100120002F93023529F4FEB7EDB7319613E11AC0CB
:10013000033539F4FEB7EDB771961FEF1E1B3196EC
:1001400011C0053521F410E8F1E0EBE20BC00435F5
:1001500021F41127F1E0EBEA05C0063539F41BE282
:10016000F1E0E0E001913BD21A95E1F72F913F9148
:100170004F915F916F917F918F919F91AF91BF91BF
:10018000CF91DF91EF91FF911F910F910FBF0F91D1
:100190001895EB76904558464154FF00C100560033
:1001A0004F004C0055004D00450053FFC100540066
:1001B000490056004F004C003000300030FF0FEF78
:1001C0000DBF04E00EBF0FEF0ABB002704BB00EB1E
:1001D00007BBC69A0AE001BB04E006B93A9806B725
:1001E0000E7F06BF0BB700620BBF04E00093000157
:1001F0000027009301010093020100930301009383
:100200000401939810E000E1DDD10AB100680AB959
:1002100000E1A02E20D2F8D22BD219F000E80093F2
:10022000000101E000931901002700931A010093D7
:100230001B0100931C01E7D3EFEAF2E001910F9359
:1002400001910F9301910F93CFE0D1E023E05F91F3
:100250009BD1099219922992399228972A95B9F738
:10026000E7E0F1E0C9E1D1E047D4CDD307E2109156
:10027000B50212FD0FE400931301EBE0F1E0C9E1D8
:10028000D1E03AD4C0D307E21091B50212FD0FE4D9
:1002900000931401EFE0F1E0C9E1D1E02DD4B3D334
:1002A00007E21091B50212FD0FE40093150100273B
:1002B00000930601009329010093280100932A016D
:1002C00078940027009300013A980091060107FFF7
:1002D000FCCF112710930601009104010030A9F30F
:1002E0003A9A10930401013811F431D19ACF0238AF
:1002F00011F406D1E6CF033811F479D1E2CF0438F6
:1003000011F488D1DECF053811F49FD1DACF0A304D
:1003100039F4002700930101009302010460D2CF59
:100320000E3129F40091030100930101CACF0A356F
:1003300031F400910101039500930101C2CF083807
:1003400011F442D0BECF083A11F42BD0BACF003C02
:1003500011F409D0B6CF043F11F4ACD0F7CF003D73
:10036000A9F782D35ECF3A9800910101009303016F
:1003700072D0002787990395009303016CD00091F8
:1003800002010093030167D000270093030163D0AB
:100390000027009303015FD00027009303015BD087
:1003A0000895F1E0EBEA20E03A985FD00091030174
:1003B00001932A95D1F73A9A01E0879B0027009391
:1003C000050114D06BD0089501E0879B00270093AE
:1003D00005010CD054D0F1E0EBEA20E03A9801910D
:1003E0000093030138D02A95D1F7089500910101B7
:1003F0001091050110FF0CC0109113018599109107
:100400001401869910911501011B01951395010F97
:1004100019E0019F112700910201000E111E0092A8
:10042000160116940794F1E0E7E0859934968699D1
:1004300038960191000D009319010191011D00935F
:100440001A0100240191001D00931B010081001D71
:1004500000931C0108950091060107FFFCCF1127AE
:10046000109306010338B9F708950091060107FFBC
:10047000FCCF1127109306010738B9F70895C3D2AE
:10048000EBEAF2E00091160100FDF395CBEAD1E032
:100490000027119119930A95E1F70895B4D2EBEA78
:1004A000F1E0CBEAD2E00091160100FDD395F0DF38
:1004B00077D2089549E03A98D8DF009103010E3FC2
:1004C000D9F7D3DFD2DF0091030100930501CDDF1F
:1004D0000091030100930201C8DF009103010B3F6B
:1004E000D9F7F1E0EBEA20E0C0DF009103010193CE
:1004F0002A95D1F73A9A7ADFD1DF4A95E1F6089545
:1005000001E000931901002700931A0100931B01D9
:1005100000931C0178D2F2E0EFEA43E001910093EE
:1005200003013A9898DF3A9A4A95C1F755272CD09B
:100530006AD2EBEAF2E04AE00191009303013A98B3
:100540008ADF3A9A4A95C1F7539589F708953A9800
:100550008CDF4091030143704A9587DF509103017E
:100560003A9A01E000931901002700931A010093C1
:100570001B0100931C0147D2F2E0EBEAE40F0027D5
:10058000F01F54830DD20895552EF1E0E4E201905E
:1005900011902224332401911191552019F009D092
:1005A0005A94E9F7F1E0E9E1019211922192319236
:1005B00008954424000E141C241C341C110E241C09
:1005C000341C089509B910BD06E800BD08E10AB958
:1005D00002E00BB908955F9BFECF0CB108955D9BBF
:1005E000FECF0CB908955F9B08950CB1FCCF00912C
:1005F0002A01003049F0F1E0EBE200912901E00F1F
:100600000027F01F008101C00BB1009303013A984D
:1006100022DF089500912A01003091F00A9500939D
:100620002A01F1E0EBE2009129010395E00F112787
:10063000F11F0395003809F4002700932901008178
:10064000009303013A9807DF08953A980EDF00916E
:100650000301C5DF089503E50DB908950FEF0FB944
:10066000779BFECF0FB1089568986998709A0895A6
:1006700000270093190100931A0100931B010093B6
:100680001C01C1D1E1E7F4E0C0E2D1E035D2E0E203
:10069000F1E0C9E1D1E030D2B6D1EBEAF2E0C2E953
:1006A000D1E017D261F5C3E0D3E0A0E2B1E02AD2F5
:1006B000EBE0F3E0C9E1D1E01FD2009119010A9506
:1006C0000A9500931901E8E1F3E0308130931F01AE
:1006D000E9D1A9E1B1E0C0E2D1E014D294D1EBEAD2
:1006E000F2E0CCE9D1E00081013C11F4F2D141F01B
:1006F000B0960BEAE017B9F704E0F017A1F75EC077
:10070000B0977496C9E1D1E0F7D1009119010A952B
:100710000A950093190130911F01C4D1A9E1B1E0FC
:10072000C0E2D1E0EFD16FD1EBEAF2E0CCEAD1E068
:100730000081013C11F4CDD141F0B0960BEAE017F5
:10074000B9F704E0F017A1F739C0B0977496C9E182
:10075000D1E0D2D1009119010A950A9500931901AF
:1007600030911F019FD1A9E1B1E0C0E2D1E0CAD12F
:10077000009119010093240100911A0100932501B1
:10078000C9E1D1E0B9D130911F0109E0300FCBD1DF
:100790004EF4E0911901F0911A013196E09319019C
:1007A000F0931A0130911F017DD10091190100933E
:1007B000260100911A01009327011894089554D13D
:1007C00053D152D151D150D10FEF49DF00911801CF
:1007D00046DF00911C0143DF00911B0140DF0091C7
:1007E0001A013DDF009119013ADF00911D0137DF49
:1007F00022273AD133DF10911E01011721F02A95EB
:10080000C1F726D198940895C49A1AE027DF1A9563
:10081000E9F7C49800E40093180100270093190138
:1008200000931A0100931B0100931C0105E900933A
:100830001D0101E000931E01C2DF61F708E400938F
:1008400018010AEA0093190101E000931A01002738
:1008500000931B0100931C0107E800931D0101E0B8
:1008600000931E01ACDF71F5F9DEF8DEF7DEF6DE8F
:1008700007E70093180100270093190100931A015C
:1008800000931B0100931C010FEF00931D0101E079
:1008900000931E0194DF61F709E600931801002719
:1008A0000093190100931A0100931B0100E40093C7
:1008B0001C010FEF00931D01002700931E017FDF35
:1008C000B9F614C001E40093180100270093190140
:1008D00000931A0100931B0100931C010FEF00937A
:1008E0001D01002700931E016ADF61F70AE70093EC
:1008F000180100270093190100931A0100931B01AE
:1009000000931C010FEF00931D01002700931E01AF
:1009100056DF61F7F2E0EBEA34E0A0DE01933A95AE
:10092000E1F70091AB020093170109E4009318016D
:10093000002700931E0143DFC1F70EEF00931E0155
:1009400057DF99F732E18ADE3A95E9F70AE4009336
:100950001801002700931E0132DFC1F70EEF00934C
:100960001E0146DF99F732E179DE3A95E9F77CDE40
:10097000C49800E50093180100270093190102E0D4
:1009800000931A01002700931B0100931C0100270C
:1009900000931D0100931E0112DF51F7C49A0895C0
:1009A000C4986DD00091170106FF7BD008E5009335
:1009B0001801002700931D0100931E0100DFB1F70D
:1009C0004DDE4CDE0EEF4BDEF2E0EBEA3327019119
:1009D00046DE3A95E1F7019142DE3A95E1F73EDED7
:1009E0003DDE3CDE0F71053049F40FEF00931E0130
:1009F000FFDE21F44DD0C49A1894089549D028D030
:100A0000C49A98940895C4983AD00091170106FFAB
:100A100048D001E500931801002700931D010093C1
:100A20001E01CDDEB1F70EEF00931E01E1DE89F766
:100A3000F2E0EBEA332712DE01933A95E1F70EDE9E
:100A400001933A95E1F70ADE09DEC49A21D00895B0
:100A5000C6DD00911E01C3DD00911801C0DDAA941E
:100A6000F9F30895000008950F931F9314E10027F0
:100A70000A95F1F71A95E1F71F910F91089560908B
:100A8000190170901A0180901B0190901C0108952B
:100A900090921C0180921B0170921A0160921901C0
:100AA000089539E000911901000F00931901009198
:100AB0001A01001F00931A0100911B01001F0093EF
:100AC0001B0100911C01001F00931C013A9551F776
:100AD0000895EF93FF93CF93DF938F01FE01E80119
:100AE00005910F3F21F01991011709F4F9CFDF911A
:100AF000CF91FF91EF91089504E0119119930A9518
:100B0000E1F708950C911991010F0D930C91199132
:100B1000011F0D930C911991011F0D930C911991C7
:100B2000011F0D930895E89400911C010695009310
:100B30001C0100911B01079500931B0100911A01F4
:100B4000079500931A010091190107950093190167
:0A0B500008F468943A9541F70895FF
:00000001FF
