:020000020000FC
:040000000C94E60076
:04004C000C945400BC
:04000C000C94380018
:10007000DFB6E02E06B30370FF24B1E0A0E0A00FCE
:10008000BF1DFC90FBBA006800000000299907C062
:10009000F3B2F0940460043809F41496FC920093CF
:1000A00006010E2DDFBE18950F930FB70F93FF9328
:1000B000EF9300912A01039500932A01F1E0E0E318
:1000C00000912801E00F0395003A09F400270093FE
:1000D00028010CB100830A3069F402910D3051F40B
:1000E00034970191013431F40191043519F40191EF
:1000F000033211F00C94CA000081DF93CF93BF93B9
:10010000AF939F938F937F936F935F934F933F939F
:100110002F931F93023529F4FEB7EDB7319613E103
:1001200026C0033539F4FEB7EDB771961FEF1E1BDD
:1001300031961DC0023421F410EAF1E0E0E317C06B
:10014000043521F41127F1E0E0ED11C0053521F46B
:100150001127F2E0E0ED0BC00C3421F41127F3E09D
:10016000E0E505C0063549F410E3F1E0E0E0019177
:100170005D9BFECF0CB91A95D1F71F912F913F913E
:100180004F915F916F917F918F919F91AF91BF91AF
:10019000CF91DF91EF91FF910F910FBF0F911895C4
:1001A000EB76904558464154FF00C10056004F0081
:1001B0004C0055004D00450053FFC100540049005C
:1001C00056004F004C003000300030FF0FEF0DBFE5
:1001D00004E00EBF0FEF0ABB002704BB00EB07BB18
:1001E000C69A0AE001BB04E006B900E80BBB3A98E6
:1001F00006B70E7F06BF0BB700620BBF04E000938B
:100200000001002700930101009302010093030104
:1002100000930401939810E008E0E5D10AB100686A
:100220000AB900E1A02E3ED216D349D219F000E857
:100230000093000101E000931901002700931A01C7
:1002400000931B0100931C0105D4E4EDF2E0019141
:100250000F9301910F9301910F93CFE0D1E023E031
:100260005F91A3D1099219922992399228972A95E0
:10027000B9F7E7E0F1E0C9E1D1E068D4EBD307E2F8
:100280001091DA0212FD0FE400931301EBE0F1E0AC
:10029000C9E1D1E05BD4DED307E21091DA0212FDAE
:1002A0000FE400931401EFE0F1E0C9E1D1E04ED496
:1002B000D1D307E21091DA0212FD0FE40093150189
:1002C0000027009306010093290100932801009361
:1002D0002A0178940027009300013A9800910601C2
:1002E00007FFFCCF11271093060100910401003095
:1002F000A9F33A9A10930401013811F439D19ACF35
:10030000023811F40ED1E6CF033811F47FD1E2CFD9
:10031000043811F489D1DECF053811F4A1D1DACF38
:10032000063811F4A3D1D6CF073811F440D4D2CF78
:100330000A3039F4002700930101009302010460A0
:10034000CACF0E3129F40091030100930101C2CFFD
:100350000A3531F400910101039500930101BACFF0
:10036000083811F442D0B6CF083A11F42BD0B2CFEE
:10037000003C11F409D0AECF043F11F4ACD0F7CF5C
:10038000003DA9F79BD356CF3A9800910101009305
:10039000030172D0002787990395009303016CD065
:1003A000009102010093030167D00027009303012D
:1003B00063D00027009303015FD00027009303015F
:1003C0005BD00895F1E0E0ED20E03A985FD0009135
:1003D000030101932A95D1F73A9A01E0879B002700
:1003E0000093050114D06BD0089501E0879B00278E
:1003F000009305010CD054D0F1E0E0ED20E03A98F4
:1004000001910093030138D02A95D1F70895009106
:1004100001011091050110FF0CC010911301859985
:1004200010911401869910911501011B01951395E6
:10043000010F19E0019F112700910201000E111E0A
:100440000092160116940794F1E0E7E0859934963E
:10045000869938960191000D009319010191011DB3
:1004600000931A0100240191001D00931B010081DB
:10047000001D00931C0108950091060107FFFCCFA9
:100480001127109306010338B9F70895009106016A
:1004900007FFFCCF1127109306010738B9F708951D
:1004A000D9D2E0EDF2E00091160100FDF395C0ED28
:1004B000D1E00027119119930A95E1F70895CAD266
:1004C000E0EDF1E0C0EDD2E00091160100FDD39522
:1004D000F0DF8DD2089549E03A98D8DF009103010A
:1004E0000E3FD9F7D3DFD2DF00910301009305015E
:1004F000CDDF0091030100930201C8DF00910301E9
:100500000B3FD9F7F1E0E0ED20E0C0DF00910301FF
:1005100001932A95D1F73A9A7ADFD1DF4A95E1F62D
:10052000089501E000931901002700931A01009338
:100530001B0100931C018ED2F2E0E4ED43E0019137
:10054000009303013A9898DF3A9A4A95C1F75527E4
:100550002CD080D2E0EDF2E04AE00191009303015B
:100560003A988ADF3A9A4A95C1F7539589F70895E0
:100570003A988CDF4091030143704A9587DF509190
:1005800003013A9A01E000931901002700931A0130
:1005900000931B0100931C015DD2F2E0E0EDE40F3B
:1005A0000027F01F548323D20895552EF1E0E4E292
:1005B000019011902224332401911191552019F0BA
:1005C00009D05A94E9F7F1E0E9E101921192219200
:1005D000319208954424000E141C241C341C110E66
:1005E000241C341C089509B910BD06E800BD08E1BB
:1005F0000AB908955F9BFECF0CB108955D9BFECFB5
:100600000CB908955F9B08950CB1FCCF0AB107FFA8
:1006100006C000912A01003019F002EE01C00BB1B2
:10062000009303013A9808950AB107FF14C000919E
:100630002A01003089F00A9500932A01F1E0E0E3F5
:1006400000912901E00F0395003A09F40027009377
:100650002901008101C00CB1009303013A9808956B
:100660003A9814DF00910301C9DF08953A980EDF2C
:10067000009103013A9A003049F4C4DF0027009347
:1006800029010093280100932A010895013021F4E3
:100690000AB100680AB90895023019F40AB10F7757
:1006A0000AB9089503E50DB908950FEF0FB9779BC7
:1006B000FECF0FB1089568986998709A0895002741
:1006C0000093190100931A0100931B0100931C0170
:1006D000C1D1E6E9F4E0C0E2D1E038D2E0E2F1E0F5
:1006E000C9E1D1E033D2B6D1E0EDF2E0C0EAD1E029
:1006F0001AD261F5C8E2D3E0A0E2B1E02DD2E0E386
:10070000F3E0C9E1D1E022D2009119010A950A95DE
:1007100000931901EDE3F3E0308130931F01ECD138
:10072000A9E1B1E0C0E2D1E017D294D1E0EDF2E06E
:10073000CAEAD1E00081013C11F4F5D141F0B09654
:1007400000EDE017B9F704E0F017A1F75EC0B0972D
:100750007496C9E1D1E0FAD1009119010A950A9580
:100760000093190130911F01C7D1A9E1B1E0C0E2A6
:10077000D1E0F2D16FD1E0EDF2E0CAEBD1E000813F
:10078000013C11F4D0D141F0B09600EDE017B9F77B
:1007900004E0F017A1F739C0B0977496C9E1D1E031
:1007A000D5D1009119010A950A950093190130914C
:1007B0001F01A2D1A9E1B1E0C0E2D1E0CDD1009109
:1007C00019010093240100911A0100932501C9E148
:1007D000D1E0BCD130911F0109E0300FCED14EF4F1
:1007E000E0911901F0911A013196E0931901F0930B
:1007F0001A0130911F0180D1009119010093260147
:1008000000911A01009327011894089557D156D1E9
:1008100055D154D153D10FEF49DF0091180146DF74
:1008200000911C0143DF00911B0140DF00911A0180
:100830003DDF009119013ADF00911D0137DF2227CA
:100840003DD133DF10911E01011721F02A95C1F728
:1008500026D198940895C49A1AE027DF1A95E9F7EB
:10086000C49800E400931801002700931901009335
:100870001A0100931B0100931C0105E900931D015F
:1008800001E000931E01C2DF61F708E40093180144
:100890000AEA0093190101E000931A01002700936E
:1008A0001B0100931C0107E800931D0101E0009368
:1008B0001E01ACDF71F5F9DEF8DEF7DEF6DE07E7E4
:1008C0000093180100270093190100931A01009367
:1008D0001B0100931C010FEF00931D0101E0009329
:1008E0001E0194DF61F709E60093180100270093C9
:1008F000190100931A0100931B0100E400931C01ED
:100900000FEF00931D01002700931E017FDFB9F652
:1009100014C001E40093180100270093190100930B
:100920001A0100931B0100931C010FEF00931D019E
:10093000002700931E016ADF61F70AE700931801A0
:1009400000270093190100931A0100931B010093E3
:100950001C010FEF00931D01002700931E0156DFBD
:1009600061F7F2E0E0ED34E0A0DE01933A95E1F7C3
:100970000091D0020093170109E4009318010027A9
:1009800000931E0143DFC1F70EEF00931E0157DFF6
:1009900099F732E18ADE3A95E9F70AE40093180103
:1009A000002700931E0132DFC1F70EEF00931E01F6
:1009B00046DF99F732E179DE3A95E9F77CDEC498B3
:1009C00000E50093180100270093190102E000934D
:1009D0001A01002700931B0100931C0100270093BC
:1009E0001D0100931E0112DF51F7C49A0895C498A7
:1009F00070D00091170106FF7ED008E50093180122
:100A0000002700931D0100931E0100DFB1F74DDEAA
:100A10004CDE0EEF4BDEF2E0E0ED3327019146DED7
:100A20003A95E1F7019142DE3A95E1F73EDE3DDE8F
:100A30003CDE0F71053049F40FEF00931E01FFDE1D
:100A400021F450D0C49A189408954CD028D0C49A58
:100A500098940895C4983DD00091170106FF4BD09B
:100A600001E500931801002700931D0100931E016A
:100A7000CDDEB1F70EEF00931E01E1DE89F7F2E063
:100A8000E0ED332712DE01933A95E1F70EDE019394
:100A90003A95E1F70ADE09DEC49A24D00895AEDD66
:100AA00000911E01ABDD00911801A8DDAA94F9F3B5
:100AB0000895000008951F93112702C01F9314E1A9
:100AC0000F9300270A95F1F71A95E1F70F911F91FF
:100AD00008956090190170901A0180901B01909008
:100AE0001C01089590921C0180921B0170921A01C2
:100AF00060921901089539E000911901000F0093E7
:100B0000190100911A01001F00931A0100911B01A5
:100B1000001F00931B0100911C01001F00931C018A
:100B20003A9551F70895EF93FF93CF93DF938F0199
:100B3000FE01E80105910F3F21F01991011709F419
:100B4000F9CFDF91CF91FF91EF91089504E01191DA
:100B500019930A95E1F708950C911991010F0D93DE
:100B60000C911991011F0D930C911991011F0D9377
:100B70000C911991011F0D930895E89400911C01A7
:100B8000069500931C0100911B01079500931B0122
:100B900000911A01079500931A0100911901079518
:100BA0000093190108F468943A9541F708953A982A
:100BB0006DDC509103016ADC0091030100932F0169
:100BC00065DC409103010BB70F7D0BBF00E80BBB49
:100BD000002700932E0100932C01039500932B0115
:100BE000E4DC3FD1442309F457C0EDD0F1F31831D0
:100BF000D1F1153129F01334C1F701E000932E0132
:100C000039D111E01FD110912B011CD110951AD1AF
:100C1000B2E0A0ED992780912B018A95837007E0BF
:100C200044D1A80FB91F0024112400922D0120E8FF
:100C30001D9108D100912D01010F00932D01A7D026
:100C40002A95B1F700912E01002329F0112DFAD039
:100C5000102DF8D003C010912D01F4D0B4D0F1F3D1
:100C6000153179F21831B1F01630C1F780912B01AE
:100C700090912C01019690932C0180932B0181344B
:100C800011F49B3021F08370813029F0BACF14E049
:100C9000D9D077C071C0B4CF28E013E4D3D093D0BB
:100CA00011F0113019F02A95C1F706C010932E01EA
:100CB00002DF01DF00DF08C0D4D015E1FCDEFBDE7F
:100CC000FADEC0D080D0C1F310932D01143009F3A7
:100CD000183101F3113081F776D071F300912D01B5
:100CE000010F00932D0100912B01101729F76BD0F4
:100CF00019F300912D01010F00932D010023E1F65E
:100D0000B2E0A0ED992780912B018A95837007E0CE
:100D1000CCD0A80FB91F0024112400922D0120E887
:100D200052D051F21D9300912D01010F00932D011E
:100D30002ED02A95A9F747D059F000912E01002313
:100D400041F0111529F43FD019F0101509F405C030
:100D5000B3CF00912D011017D9F780912B019091FD
:100D60002C01019690932C0180932B01837081308C
:100D700009F483D016E0A2CF00E90BBB00270A9547
:100D8000F1F716E05FD00BB700620BBF0895112595
:100D9000112E12951F701125112E1295212E107FE4
:100DA00010251F932F921F912F9017FB110F10F9F1
:100DB000012E107E11251F930F921F910F901F710E
:100DC0001225112E08950ED061F023D0102F00911E
:100DD0002F01002329F01D3019F404D011F019D08F
:100DE0009894089555E5442733270AB107FD04C0B8
:100DF0000BB1007839F00CC000912A01003011F0DD
:100E000002EE06C03A9589F74A9579F75A9569F73F
:100E100008950AB107FD02C00CB113C000912A0168
:100E2000003079F00A9500932A01F1E0E0E30091A7
:100E30002901E00F0395003A09F4002700932901E6
:100E400000810895012FDADB00912F01002341F08A
:100E50001D3011F4002703C01F3F11F40FEFCEDB4C
:100E60000895D0DB00270093290100932801009307
:100E70002A010895EFDD0C943E07B9DD11E00091E1
:100E80001901010F00931901112700911A01011F87
:100E900000931A0100911B01011F00931B01009197
:100EA0001C01011F00931C010895880F991F0A95CA
:040EB000E1F70895C9
:00000001FF
