:020000020000FC
:040000000C94E60076
:04004C000C945400BC
:04000C000C94380018
:10007000DFB6E02E06B30370FF24B1E0A0E0A00FCE
:10008000BF1DFC90FBBA006800000000299907C062
:10009000F3B2F0940460043809F41496FC920093CF
:1000A00006010E2DDFBE18950F930FB70F93FF9328
:1000B000EF9300912F01039500932F01F1E0E5E309
:1000C00000912D01E00F0395003A09F400270093F9
:1000D0002D010CB100830A3069F402910D3051F406
:1000E00034970191013431F40191043519F40191EF
:1000F000033211F00C94CA000081DF93CF93BF93B9
:10010000AF939F938F937F936F935F934F933F939F
:100110002F931F93023529F4FEB7EDB7319613E103
:1001200026C0033539F4FEB7EDB771961FEF1E1BDD
:1001300031961DC0023421F410EAF1E0E5E317C066
:10014000043521F41127F1E0E5ED11C0053521F466
:100150001127F2E0E5ED0BC00C3421F41127F3E098
:10016000E5E505C0063549F415E3F1E0E0E001916D
:100170005D9BFECF0CB91A95D1F71F912F913F913E
:100180004F915F916F917F918F919F91AF91BF91AF
:10019000CF91DF91EF91FF910F910FBF0F911895C4
:1001A000EB76904558464154FF00C10056004F0081
:1001B0004C0055004D00450053FFC100540049005C
:1001C00056004F004C003000300030FF0FEF0DBFE5
:1001D00004E00EBF0FEF0ABB002704BB00EB07BB18
:1001E000C69A0AE001BB04E006B900E80BBB3A98E6
:1001F00006B70E7F06BF0BB700620BBF04E000938B
:100200000001002700930101009302010093030104
:1002100000930401939810E008E001D20AB100684D
:100220000AB900E1A02E5AD232D365D231F000E8EB
:10023000009300010FEF0093070101E000931E01FE
:10024000002700931F0100932001009321011ED479
:10025000E6EDF2E0009107010F9301910F930191F8
:100260000F9301910F93C3E1D1E024E05F91B9D1E5
:10027000099219922992399228972A95B9F7E7E0BD
:10028000F1E0CEE1D1E07ED401D407E21091DF02AB
:1002900012FD0FE400931701EBE0F1E0CEE1D1E0B5
:1002A00071D4F4D307E21091DF0212FD0FE4009342
:1002B0001801EFE0F1E0CEE1D1E064D4E7D307E24A
:1002C0001091DF0212FD0FE400931901E3E1F1E068
:1002D000CEE1D1E057D4DAD307E21091DF0212FD6C
:1002E0000FE400931A0100270093060100932E01EA
:1002F00000932D0100932F017894002700930001B3
:100300003A980091060107FFFCCF112710930601D0
:10031000009104010030A9F33A9A109304010138C6
:1003200011F43ED18ACF023811F413D1E6CF03384D
:1003300011F488D1E2CF043811F492D1DECF053820
:1003400011F4AAD1DACF063811F4ACD1D6CF0738E0
:1003500011F449D4D2CF0A3039F4002700930101B7
:10036000009302010460CACF0E3129F40091030109
:1003700000930101C2CF0A3531F4009101010395C8
:1003800000930101BACF083811F442D0B6CF083A31
:1003900011F42BD0B2CF003C11F409D0AECF043F02
:1003A00011F4B1D0F7CF003DA9F7A4D346CF3A98C6
:1003B000009101010093030177D0002787990395ED
:1003C0000093030171D000910201009303016CD0EE
:1003D00000270093030168D000270093030164D035
:1003E00000270093030160D00895F1E0E5ED20E0DF
:1003F0003A9864D00091030101932A95D1F73A9A73
:1004000001E0879B00270093050114D070D0089568
:1004100001E0879B0027009305010CD059D0F1E043
:10042000E5ED20E03A980191009303013DD02A9533
:10043000D1F70895009101011091050110FF0FC03F
:100440001091170184991091180185991091190143
:10045000869910911A01011B01951395010F19E05E
:10046000019F112700910201000E111E00921B0135
:1004700016940794F1E0E7E08499349685993896CC
:1004800086993C960191000D00931E010191011D7A
:1004900000931F0100240191001D009320010081A1
:1004A000001D0093210108950091060107FFFCCF74
:1004B0001127109306010338B9F70895009106013A
:1004C00007FFFCCF1127109306010738B9F70895ED
:1004D000DDD2E5EDF2E000911B0100FDF395C5EDE5
:1004E000D1E00027119119930A95E1F70895CED232
:1004F000E5EDF1E0C5EDD2E000911B0100FDD395E3
:10050000F0DF91D2089549E03A98D8DF00910301D5
:100510000E3FD9F7D3DFD2DF00910301009305012D
:10052000CDDF0091030100930201C8DF00910301B8
:100530000B3FD9F7F1E0E5ED20E0C0DF00910301CA
:1005400001932A95D1F73A9A75DFD1DF4A95E1F602
:10055000089501E000931E01002700931F010093FE
:1005600020010093210192D2F2E0E6ED43E00191F7
:10057000009303013A9898DF3A9A4A95C1F75527B4
:1005800030D084D2E5EDF2E04AE00191009303011E
:100590003A988ADF3A9A4A95C1F7539589F70895B0
:1005A0003A988CDF40910301437088DF509103013A
:1005B0003A9A403019F45093070112C001E00093B9
:1005C0001E01002700931F010093200100932101C9
:1005D0005DD2F2E0E5EDE40F0027F01F508323D257
:1005E0000895552EF1E0E9E2019011902224332480
:1005F00001911191552019F009D05A94E9F7F1E0D1
:10060000EEE1019211922192319208954424000E5C
:10061000141C241C341C110E241C341C089509B90C
:1006200010BD06E800BD08E10AB908955F9BFECF42
:100630000CB108955D9BFECF0CB908955F9B0895A2
:100640000CB1FCCF0AB107FF06C000912F010030AA
:1006500019F002EE01C00BB1009303013A9808951E
:100660000AB107FF14C000912F01003089F00A95EC
:1006700000932F01F1E0E5E300912E01E00F0395D7
:10068000003A09F4002700932E01008101C00CB14B
:10069000009303013A9808953A9810DF00910301FE
:1006A000C9DF08953A980ADF009103013A9A0030B1
:1006B00049F4C4DF002700932E0100932D0100931D
:1006C0002F010895013021F40AB100680AB9089594
:1006D000023019F40AB10F770AB9089503E50DB98C
:1006E00008950FEF0FB9779BFECF0FB1089568986B
:1006F0006998709A0895002700931E0100931F01C6
:100700000093200100932101C1D1EBE9F4E0C5E29F
:10071000D1E038D2E5E2F1E0CEE1D1E033D2B6D19A
:10072000E5EDF2E0C0EAD1E01AD261F5CDE2D3E026
:10073000A5E2B1E02DD2E5E3F3E0CEE1D1E022D2B3
:1007400000911E010A950A9500931E01E2E4F3E070
:10075000308130932401ECD1AEE1B1E0C5E2D1E0CB
:1007600017D294D1E5EDF2E0CAEAD1E00081013C74
:1007700011F4F5D141F0B09605EDE017B9F704E0BA
:10078000F017A1F75EC0B0977496CEE1D1E0FAD130
:1007900000911E010A950A9500931E0130912401D3
:1007A000C7D1AEE1B1E0C5E2D1E0F2D16FD1E5ED64
:1007B000F2E0CAEBD1E00081013C11F4D0D141F06C
:1007C000B09605EDE017B9F704E0F017A1F739C0CE
:1007D000B0977496CEE1D1E0D5D100911E010A9573
:1007E0000A9500931E0130912401A2D1AEE1B1E03F
:1007F000C5E2D1E0CDD100911E0100932901009105
:100800001F0100932A01CEE1D1E0BCD13091240137
:1008100009E0300FCED14EF4E0911E01F0911F019E
:100820003196E0931E01F0931F013091240180D195
:1008300000911E0100932B0100911F0100932C01D8
:100840001894089557D156D155D154D153D10FEFA3
:1008500049DF00911D0146DF0091210143DF009136
:10086000200140DF00911F013DDF00911E013ADFB2
:100870000091220137DF22273DD133DF1091230180
:10088000011721F02A95C1F726D198940895C49AAA
:100890001AE027DF1A95E9F7C49800E400931D01D8
:1008A000002700931E0100931F0100932001009375
:1008B000210105E90093220101E000932301C2DF39
:1008C00061F708E400931D010AEA00931E0101E0AC
:1008D00000931F010027009320010093210107E8E6
:1008E0000093220101E000932301ACDF71F5F9DEF2
:1008F000F8DEF7DEF6DE07E700931D010027009320
:100900001E0100931F0100932001009321010FEFAE
:100910000093220101E00093230194DF61F709E6CF
:1009200000931D01002700931E0100931F010093F7
:10093000200100E4009321010FEF00932201002722
:10094000009323017FDFB9F614C001E400931D0179
:10095000002700931E0100931F01009320010093C4
:1009600021010FEF009322010027009323016ADF8A
:1009700061F70AE700931D01002700931E01009311
:100980001F0100932001009321010FEF009322012A
:1009900000270093230156DF61F7F2E0E5ED34E034
:1009A000A0DE01933A95E1F70091D50200931C0176
:1009B00009E400931D0100270093230143DFC1F7E1
:1009C0000EEF0093230157DF99F732E18ADE3A9563
:1009D000E9F70AE400931D0100270093230132DFA9
:1009E000C1F70EEF0093230146DF99F732E179DE7C
:1009F0003A95E9F77CDEC49800E500931D010027D5
:100A000000931E0102E000931F01002700932001C4
:100A1000009321010027009322010093230112DF9C
:100A200051F7C49A0895C49870D000911C0106FF34
:100A30007ED008E500931D0100270093220100935A
:100A4000230100DFB1F74DDE4CDE0EEF4BDEF2E0AE
:100A5000E5ED3327019146DE3A95E1F7019142DE5B
:100A60003A95E1F73EDE3DDE3CDE0F71053049F49C
:100A70000FEF00932301FFDE21F450D0C49A1894A5
:100A800008954CD028D0C49A98940895C4983DD025
:100A900000911C0106FF4BD001E500931D010027CA
:100AA0000093220100932301CDDEB1F70EEF0093F6
:100AB0002301E1DE89F7F2E0E5ED332712DE019351
:100AC0003A95E1F70EDE01933A95E1F70ADE09DE89
:100AD000C49A24D00895AEDD00912301ABDD0091CE
:100AE0001D01A8DDAA94F9F30895000008951F934D
:100AF000112702C01F9314E10F9300270A95F1F705
:100B00001A95E1F70F911F91089560901E01709062
:100B10001F01809020019090210108959092210161
:100B20008092200170921F0160921E01089539E0A9
:100B300000911E01000F00931E0100911F01001F74
:100B400000931F0100912001001F009320010091DC
:100B50002101001F009321013A9551F70895EF9369
:100B6000FF93CF93DF938F01FE01E80105910F3FC3
:100B700021F01991011709F4F9CFDF91CF91FF917D
:100B8000EF91089504E0119119930A95E1F7089502
:100B90000C911991010F0D930C911991011F0D9357
:100BA0000C911991011F0D930C911991011F0D9337
:100BB0000895E89400912101069500932101009188
:100BC000200107950093200100911F0107950093D4
:100BD0001F0100911E01079500931E0108F46894FF
:100BE0003A9541F708953A9869DC5091030166DC23
:100BF000009103010093340161DC409103010BB7C4
:100C00000F7D0BBF00E80BBB00270093330100935F
:100C10003101039500933001E4DC3FD1442309F412
:100C200057C0EDD0F1F31831D1F1153129F013345B
:100C3000C1F701E00093330139D111E01FD11091C8
:100C400030011CD110951AD1B2E0A5ED9927809101
:100C500030018A95837007E044D1A80FB91F0024A2
:100C600011240092320120E81D9108D10091320137
:100C7000010F00933201A7D02A95B1F700913301FB
:100C8000002329F0112DFAD0102DF8D003C01091B7
:100C90003201F4D0B4D0F1F3153179F21831B1F05A
:100CA0001630C1F7809130019091310101969093F7
:100CB000310180933001813411F49B3021F0837035
:100CC000813029F0BACF14E0D9D077C071C0B4CF49
:100CD00028E013E4D3D093D011F0113019F02A9505
:100CE000C1F706C01093330102DF01DF00DF08C047
:100CF000D4D015E1FCDEFBDEFADEC0D080D0C1F33B
:100D000010933201143009F3183101F3113081F7D7
:100D100076D071F300913201010F009332010091FE
:100D20003001101729F76BD019F300913201010F30
:100D3000009332010023E1F6B2E0A5ED99278091FE
:100D400030018A95837007E0CCD0A80FB91F00242A
:100D500011240092320120E852D051F21D930091EB
:100D60003201010F009332012ED02A95A9F747D006
:100D700059F000913301002341F0111529F43FD0BF
:100D800019F0101509F405C0B3CF00913201101706
:100D9000D9F7809130019091310101969093310102
:100DA000809330018370813009F483D016E0A2CFA4
:100DB00000E90BBB00270A95F1F716E05FD00BB7EF
:100DC00000620BBF08951125112E12951F70112579
:100DD000112E1295212E107F10251F932F921F91F7
:100DE0002F9017FB110F10F9012E107E11251F9364
:100DF0000F921F910F901F711225112E08950ED082
:100E000061F023D0102F00913401002329F01D3010
:100E100019F404D011F019D09894089555E5442799
:100E200033270AB107FD04C00BB1007839F00CC0BC
:100E300000912F01003011F002EE06C03A9589F7BB
:100E40004A9579F75A9569F708950AB107FD02C0E6
:100E50000CB113C000912F01003079F00A95009376
:100E60002F01F1E0E5E300912E01E00F0395003A38
:100E700009F4002700932E0100810895012FDADB89
:100E800000913401002341F01D3011F4002703C00C
:100E90001F3F11F40FEFCEDB0895D0DB0027009346
:100EA0002E0100932D0100932F010895EFDD0C9486
:100EB0005A07B9DD11E000911E01010F00931E01D8
:100EC000112700911F01011F00931F0100912001B4
:100ED000011F0093200100912101011F00932101B6
:0C0EE0000895880F991F0A95E1F7089506
:00000001FF
